:1000000073C000009AC0000098C0000096C00000B5
:1000100094C0000092C0000090C000008EC000009C
:100020008CC000008AC0000088C0000086C00000AC
:1000300084C0000082C0000080C000007EC00000BC
:100040007CC000007AC0000078C0000076C00000CC
:1000500074C000003CC1000070C000006EC0000011
:100060006CC0000009C1000068C0000066C000004C
:1000700064C0000062C0000060C000005EC00000FC
:100080005CC000005AC0000058C0000056C000000C
:1000900054C0000052C0000050C000004EC000001C
:1000A0004CC000004AC0000048C0000046C000002C
:1000B00044C0000042C0000040C000003EC000003C
:1000C0003CC000003AC0000038C0000036C000004C
:1000D00034C0000032C0000030C000002EC000005C
:1000E0002CC000003701320111241FBECFEFD1E236
:1000F000DEBFCDBF00E00CBF12E0A0E0B2E0EAE955
:10010000F9E000E00BBF02C007900D92A430B107E8
:10011000D9F712E0A4E0B2E001C01D92A933B10703
:10012000E1F710E0C6EED0E003C02297FE014FD108
:10013000C43ED107D1F781D024C462CFF89480E1C6
:1001400090E09093C5008093C400E0ECF0E08081E3
:100150008D7F8083E1ECF0E08081886980838081FD
:100160008B7F8083E2ECF0E08081866080838081F9
:100170008F778083789408950F931F938C01DEDF2F
:10018000F80112AA1F910F9108950895CF93DF935C
:10019000EC01282F9D2F80E004C0AC0FBD1F1C92E6
:1001A0008F5FA22FB92FFD0101900020E9F7319751
:1001B000EA1BFB0BA82FB0E0AE17BF0770F31AAA1B
:1001C000DF91CF910895DC01D2968C91D297FD01F9
:1001D000E80FF11D60838F5FD2968C93D2978431A4
:1001E00010F0CD01D3CF0895DB010D900020E9F789
:1001F0001197A61BB70B90E00CC0F8948091C0003B
:1002000085FFFCCFE60FF71F80818093C6007894AE
:100210009F5FE92FF0E0EA17FB0778F3089584B5B4
:10022000826084BD85B5826085BDEEE6F0E08081A8
:100230008260808387EC87BD0895F1DF7894FFCFDB
:100240008130910531F46F5F7F4F59F484E092E083
:1002500093CF892B31F46F5F7F4F19F484E092E0E4
:1002600094CF089580E090E06FEF7FEFE9CF81E0D9
:1002700090E06FEF7FEFE4CF1F920F920FB60F92D7
:100280000BB60F9211242F933F934F935F936F936D
:100290007F938F939F93AF93BF93EF93FF9360915F
:1002A000C60084E092E08FDFFF91EF91BF91AF91A4
:1002B0009F918F917F916F915F914F913F912F917E
:1002C0000F900BBE0F900FBE0F901F9018951F92AE
:1002D0000F920FB60F920BB60F9211240F931F932C
:1002E0002F933F934F935F936F937F938F939F933E
:1002F000AF93BF93EF93FF93DF93CF93CDB7DEB769
:10030000E297DEBFCDBF20913702309138022F5FD8
:100310003F4F309338022093370287E2203138076D
:10032000D1F519821A821B821C82FE0135968EE25B
:10033000DF011D928A95E9F78DB79EB708970FB632
:10034000F8949EBF0FBE8DBFEDB7FEB731968E01FC
:100350000F5F1F4FADB7BEB712961C930E93119748
:1003600082E390E09383828380E092E095838483AC
:100370003783268330D08DB79EB708960FB6F89492
:100380009EBF0FBE8DBF84E092E0B8012DDF1092BA
:10039000380210923702E296DEBFCDBFCF91DF91D7
:1003A000FF91EF91BF91AF919F918F917F916F914D
:1003B0005F914F913F912F911F910F910F900BBE25
:1003C0000F900FBE0F901F901895EE0FFF1F059016
:1003D000F491E02D19940F931F93DF93CF93CDB732
:1003E000DEB72E970FB6F894DEBF0FBECDBF0E89D5
:1003F0001F89888D998D97FF02C080E090E8019752
:100400009E838D831A83098386E08C839E01245EFC
:100410003F4FCE0101966A8D7B8DA90119D04D8188
:100420005E8157FD0AC02F813885421753070CF4AF
:100430009A01020F131FF80110822E960FB6F8943E
:10044000DEBF0FBECDBFCF91DF911F910F910895F9
:100450002F923F924F925F926F927F928F929F92D4
:10046000AF92BF92CF92DF92EF92FF920F931F93C2
:10047000DF93CF93CDB7DEB72B970FB6F894DEBFDF
:100480000FBECDBF3C012B015A01FC011782168221
:10049000838181FD03C06FEF7FEFB9C19AE0892EA0
:1004A0001E010894211C311CF3012381F20123FD5C
:1004B000859123FF81912F01882309F4A5C18532FD
:1004C00039F423FD859123FF81912F01853221F499
:1004D00090E0B301CCD1E8CF982FFF24EE249924EB
:1004E000FFE1FF15D0F09B3269F09C3228F4903286
:1004F00059F0933291F40EC09D3249F0903369F473
:1005000041E024C052E0F52A84E0F82A28C098E0AF
:10051000F92A25C0E0E1FE2A22C0F7FC29C0892F74
:1005200080538A3070F4F6FE05C0989C902C1124FC
:10053000980E15C0E89CE02C1124E80EF0E2FF2A8A
:100540000EC09E3229F4F6FC5FC140E4F42A07C0D5
:100550009C3619F450E8F52A02C0983649F4F201A5
:1005600023FD959123FF91912F01992309F0B8CF95
:10057000892F8554833018F08052833038F444E05A
:1005800050E0A40EB51E5FE359830FC0933631F0DF
:10059000933779F0933509F052C01FC0F50180817F
:1005A000898342E050E0A40EB51E610101E010E035
:1005B00011C0F501C080D180F6FC03C06FEF7FEF62
:1005C00002C0692D70E042E050E0A40EB51EC601E5
:1005D00043D18C015FE7F52213C0F501C080D180C3
:1005E000F6FC03C06FEF7FEF02C0692D70E042E0C0
:1005F00050E0A40EB51EC60124D18C0150E8F52AA6
:10060000F3FE06C018C080E290E0B30130D1EA9456
:100610008E2D90E008171907B0F30DC0F601F7FC16
:100620008591F7FE81916F0190E0B30120D1E11037
:10063000EA94015010400115110581F7E2C094368B
:1006400011F0993661F5F7FE08C0F501208131817E
:100650004281538184E090E00AC0F501808191815C
:100660009C01442737FD4095542F82E090E0A80E6E
:10067000B91E9FE6F92257FF09C050954095309565
:1006800021953F4F4F4F5F4FE0E8FE2ACA01B90165
:10069000A1012AE030E017D1D82ED2183FC09537FB
:1006A00029F41F2D1F7E2AE030E01DC01F2D197F69
:1006B0009F3661F0903720F4983509F0A5C00FC03F
:1006C000903739F0983709F09FC004C028E030E037
:1006D0000AC0106114FD146020E130E004C014FD74
:1006E000166020E132E017FF08C0F50160817181DA
:1006F0008281938144E050E008C0F50180819181BE
:10070000BC0180E090E042E050E0A40EB51EA101E3
:10071000DAD0D82ED2188FE7F82EF122F6FE0BC0D1
:100720005EEFF522D91438F4F4FE07C0F2FC05C0E0
:100730008FEEF82202C01D2D01C0192DF4FE0DC050
:10074000FE01ED0DF11D8081803319F499EEF9223F
:1007500008C01F5FF2FE05C003C08F2D867809F028
:100760001F5F0F2DF3FC13C0F0FE0EC01E1510F01E
:100770009D2C0AC09D2C9E0C911A1E2D05C080E256
:1007800090E0B30174D01F5F1E15C8F304C01E159E
:1007900010F4E11A01C0EE2404FF0EC080E390E0E3
:1007A000B30165D002FF1BC001FD03C088E790E0E4
:1007B0000EC088E590E00BC0802F867881F001FFA5
:1007C00002C08BE201C080E2F7FC8DE290E0B30151
:1007D0004ED005C080E390E0B30149D09A94D9147B
:1007E000C8F3DA94F101ED0DF11D808190E0B301C1
:1007F0003ED0DD20B1F705C080E290E0B30137D0F4
:10080000EA94EE20C9F750CEF30166817781CB01DF
:100810002B960FB6F894DEBF0FBECDBFCF91DF9100
:100820001F910F91FF90EF90DF90CF90BF90AF900E
:100830009F908F907F906F905F904F903F902F9000
:100840000895FC010590615070400110D8F7809523
:1008500090958E0F9F1F0895FC016150704001908C
:100860000110D8F7809590958E0F9F1F08950F93D4
:100870001F93CF93DF938C01EB018B8181FF1BC012
:1008800082FF0DC02E813F818C819D812817390701
:1008900064F4E881F9810193F983E88306C0E8856F
:1008A000F985802F1995892B31F48E819F810196CE
:1008B0009F838E8302C00FEF1FEFC801DF91CF919E
:1008C0001F910F910895FA01AA27283051F1203184
:1008D00081F1E8946F936E7F6E5F7F4F8F4F9F4FD4
:1008E000AF4FB1E03ED0B4E03CD0670F781F891F16
:1008F0009A1FA11D680F791F8A1F911DA11D6A0FE4
:10090000711D811D911DA11D20D009F468943F9196
:100910002AE0269F11243019305D3193DEF6CF0195
:100920000895462F4770405D4193B3E00FD0C9F75B
:10093000F6CF462F4F70405D4A3318F0495D31FDC8
:100940004052419302D0A9F7EACFB4E0A69597951B
:10095000879577956795BA95C9F7009761057105F1
:1009600008959B01AC010A2E06945795479537953B
:100970002795BA95C9F7620F731F841F951FA01D95
:10098000089510E0C6EED0E003C0FE0120DD2296FF
:0A099000C83ED107D1F7F894FFCF5D
:04099A0025640000D0
:00000001FF
